{
  "_format": "hh-sol-artifact-1",
  "contractName": "StakingGovernance",
  "sourceName": "src/StakingGovernance.sol",
  "abi": [
    {
      "inputs": [
        {
          "internalType": "address",
          "name": "_tokenAddress",
          "type": "address"
        }
      ],
      "stateMutability": "nonpayable",
      "type": "constructor"
    },
    {
      "anonymous": false,
      "inputs": [
        {
          "indexed": true,
          "internalType": "address",
          "name": "user",
          "type": "address"
        },
        {
          "indexed": false,
          "internalType": "uint256",
          "name": "reward",
          "type": "uint256"
        }
      ],
      "name": "RewardClaimed",
      "type": "event"
    },
    {
      "anonymous": false,
      "inputs": [
        {
          "indexed": false,
          "internalType": "uint256",
          "name": "newRate",
          "type": "uint256"
        }
      ],
      "name": "RewardRateAdjusted",
      "type": "event"
    },
    {
      "anonymous": false,
      "inputs": [
        {
          "indexed": true,
          "internalType": "address",
          "name": "user",
          "type": "address"
        },
        {
          "indexed": false,
          "internalType": "uint256",
          "name": "reward",
          "type": "uint256"
        }
      ],
      "name": "RewardWithdrawn",
      "type": "event"
    },
    {
      "anonymous": false,
      "inputs": [
        {
          "indexed": true,
          "internalType": "address",
          "name": "user",
          "type": "address"
        },
        {
          "indexed": false,
          "internalType": "uint256",
          "name": "amount",
          "type": "uint256"
        }
      ],
      "name": "Staked",
      "type": "event"
    },
    {
      "anonymous": false,
      "inputs": [
        {
          "indexed": true,
          "internalType": "address",
          "name": "user",
          "type": "address"
        },
        {
          "indexed": false,
          "internalType": "uint256",
          "name": "amount",
          "type": "uint256"
        }
      ],
      "name": "Unstaked",
      "type": "event"
    },
    {
      "inputs": [
        {
          "internalType": "uint256",
          "name": "_newRate",
          "type": "uint256"
        }
      ],
      "name": "adjustRewardRate",
      "outputs": [],
      "stateMutability": "nonpayable",
      "type": "function"
    },
    {
      "inputs": [],
      "name": "claimReward",
      "outputs": [],
      "stateMutability": "nonpayable",
      "type": "function"
    },
    {
      "inputs": [],
      "name": "minStakeAmount",
      "outputs": [
        {
          "internalType": "uint256",
          "name": "",
          "type": "uint256"
        }
      ],
      "stateMutability": "view",
      "type": "function"
    },
    {
      "inputs": [],
      "name": "owner",
      "outputs": [
        {
          "internalType": "address",
          "name": "",
          "type": "address"
        }
      ],
      "stateMutability": "view",
      "type": "function"
    },
    {
      "inputs": [],
      "name": "rewardRate",
      "outputs": [
        {
          "internalType": "uint256",
          "name": "",
          "type": "uint256"
        }
      ],
      "stateMutability": "view",
      "type": "function"
    },
    {
      "inputs": [
        {
          "internalType": "uint256",
          "name": "_amount",
          "type": "uint256"
        }
      ],
      "name": "stake",
      "outputs": [],
      "stateMutability": "nonpayable",
      "type": "function"
    },
    {
      "inputs": [
        {
          "internalType": "address",
          "name": "",
          "type": "address"
        }
      ],
      "name": "stakers",
      "outputs": [
        {
          "internalType": "uint256",
          "name": "amount",
          "type": "uint256"
        },
        {
          "internalType": "uint256",
          "name": "reward",
          "type": "uint256"
        },
        {
          "internalType": "uint256",
          "name": "lastStaked",
          "type": "uint256"
        }
      ],
      "stateMutability": "view",
      "type": "function"
    },
    {
      "inputs": [],
      "name": "token",
      "outputs": [
        {
          "internalType": "contract IERC20",
          "name": "",
          "type": "address"
        }
      ],
      "stateMutability": "view",
      "type": "function"
    },
    {
      "inputs": [],
      "name": "totalStaked",
      "outputs": [
        {
          "internalType": "uint256",
          "name": "",
          "type": "uint256"
        }
      ],
      "stateMutability": "view",
      "type": "function"
    },
    {
      "inputs": [
        {
          "internalType": "uint256",
          "name": "_amount",
          "type": "uint256"
        }
      ],
      "name": "unstake",
      "outputs": [],
      "stateMutability": "nonpayable",
      "type": "function"
    },
    {
      "inputs": [],
      "name": "withdrawReward",
      "outputs": [],
      "stateMutability": "nonpayable",
      "type": "function"
    }
  ],
  "bytecode": "0x608060405234801561001057600080fd5b5060405161139b38038061139b83398181016040528101906100329190610134565b33600160006101000a81548173ffffffffffffffffffffffffffffffffffffffff021916908373ffffffffffffffffffffffffffffffffffffffff160217905550806000806101000a81548173ffffffffffffffffffffffffffffffffffffffff021916908373ffffffffffffffffffffffffffffffffffffffff160217905550600560038190555068056bc75e2d6310000060048190555050610161565b600080fd5b600073ffffffffffffffffffffffffffffffffffffffff82169050919050565b6000610101826100d6565b9050919050565b610111816100f6565b811461011c57600080fd5b50565b60008151905061012e81610108565b92915050565b60006020828403121561014a576101496100d1565b5b60006101588482850161011f565b91505092915050565b61122b806101706000396000f3fe608060405234801561001057600080fd5b50600436106100a95760003560e01c8063a694fc3a11610071578063a694fc3a14610156578063ae45292714610172578063b88a802f1461018e578063c885bc5814610198578063f1887684146101a2578063fc0c546a146101c0576100a9565b80632e17de78146100ae5780637b0a47ee146100ca578063817b1cd2146100e85780638da5cb5b146101065780639168ae7214610124575b600080fd5b6100c860048036038101906100c39190610b35565b6101de565b005b6100d261040b565b6040516100df9190610b71565b60405180910390f35b6100f0610411565b6040516100fd9190610b71565b60405180910390f35b61010e610417565b60405161011b9190610bcd565b60405180910390f35b61013e60048036038101906101399190610c14565b61043d565b60405161014d93929190610c41565b60405180910390f35b610170600480360381019061016b9190610b35565b610467565b005b61018c60048036038101906101879190610b35565b6106ee565b005b6101966107bf565b005b6101a0610904565b005b6101aa610ad0565b6040516101b79190610b71565b60405180910390f35b6101c8610ad6565b6040516101d59190610cd7565b60405180910390f35b80600560003373ffffffffffffffffffffffffffffffffffffffff1673ffffffffffffffffffffffffffffffffffffffff168152602001908152602001600020600001541015610263576040517f08c379a000000000000000000000000000000000000000000000000000000000815260040161025a90610d4f565b60405180910390fd5b61026b6107bf565b80600560003373ffffffffffffffffffffffffffffffffffffffff1673ffffffffffffffffffffffffffffffffffffffff16815260200190815260200160002060000160008282546102bd9190610d9e565b9250508190555080600260008282546102d69190610d9e565b9250508190555060008054906101000a900473ffffffffffffffffffffffffffffffffffffffff1673ffffffffffffffffffffffffffffffffffffffff1663a9059cbb33836040518363ffffffff1660e01b8152600401610338929190610dd2565b6020604051808303816000875af1158015610357573d6000803e3d6000fd5b505050506040513d601f19601f8201168201806040525081019061037b9190610e33565b6103ba576040517f08c379a00000000000000000000000000000000000000000000000000000000081526004016103b190610eac565b60405180910390fd5b3373ffffffffffffffffffffffffffffffffffffffff167f0f5bb82176feb1b5e747e28471aa92156a04d9f3ab9f45f28e2d704232b93f75826040516104009190610b71565b60405180910390a250565b60035481565b60025481565b600160009054906101000a900473ffffffffffffffffffffffffffffffffffffffff1681565b60056020528060005260406000206000915090508060000154908060010154908060020154905083565b6004548110156104ac576040517f08c379a00000000000000000000000000000000000000000000000000000000081526004016104a390610f18565b60405180910390fd5b60008054906101000a900473ffffffffffffffffffffffffffffffffffffffff1673ffffffffffffffffffffffffffffffffffffffff166323b872dd3330846040518463ffffffff1660e01b815260040161050993929190610f38565b6020604051808303816000875af1158015610528573d6000803e3d6000fd5b505050506040513d601f19601f8201168201806040525081019061054c9190610e33565b61058b576040517f08c379a000000000000000000000000000000000000000000000000000000000815260040161058290610eac565b60405180910390fd5b6000600560003373ffffffffffffffffffffffffffffffffffffffff1673ffffffffffffffffffffffffffffffffffffffff1681526020019081526020016000206000015411156105e3576105de6107bf565b61062b565b42600560003373ffffffffffffffffffffffffffffffffffffffff1673ffffffffffffffffffffffffffffffffffffffff168152602001908152602001600020600201819055505b80600560003373ffffffffffffffffffffffffffffffffffffffff1673ffffffffffffffffffffffffffffffffffffffff168152602001908152602001600020600001600082825461067d9190610f6f565b9250508190555080600260008282546106969190610f6f565b925050819055503373ffffffffffffffffffffffffffffffffffffffff167f9e71bc8eea02a63969f509818f2dafb9254532904319f9dbda79b67bd34a5f3d826040516106e39190610b71565b60405180910390a250565b600160009054906101000a900473ffffffffffffffffffffffffffffffffffffffff1673ffffffffffffffffffffffffffffffffffffffff163373ffffffffffffffffffffffffffffffffffffffff161461077e576040517f08c379a000000000000000000000000000000000000000000000000000000000815260040161077590610fef565b60405180910390fd5b806003819055507feacc835f824cfa20e4a4e63ec2c0305bb74ac8125c3af5e31bbaf92ed51292ec816040516107b49190610b71565b60405180910390a150565b6000600560003373ffffffffffffffffffffffffffffffffffffffff1673ffffffffffffffffffffffffffffffffffffffff16815260200190815260200160002090506000816000015411610849576040517f08c379a00000000000000000000000000000000000000000000000000000000081526004016108409061105b565b60405180910390fd5b600081600201544261085b9190610d9e565b9050600063bbf81e00826003548560000154610877919061107b565b610881919061107b565b61088b91906110ec565b9050808360010160008282546108a19190610f6f565b925050819055504283600201819055503373ffffffffffffffffffffffffffffffffffffffff167f106f923f993c2149d49b4255ff723acafa1f2d94393f561d3eda32ae348f7241826040516108f79190610b71565b60405180910390a2505050565b6000600560003373ffffffffffffffffffffffffffffffffffffffff1673ffffffffffffffffffffffffffffffffffffffff1681526020019081526020016000209050600081600101541161098e576040517f08c379a000000000000000000000000000000000000000000000000000000000815260040161098590611169565b60405180910390fd5b6000816001015490506000826001018190555060008054906101000a900473ffffffffffffffffffffffffffffffffffffffff1673ffffffffffffffffffffffffffffffffffffffff1663a9059cbb33836040518363ffffffff1660e01b81526004016109fc929190610dd2565b6020604051808303816000875af1158015610a1b573d6000803e3d6000fd5b505050506040513d601f19601f82011682018060405250810190610a3f9190610e33565b610a7e576040517f08c379a0000000000000000000000000000000000000000000000000000000008152600401610a75906111d5565b60405180910390fd5b3373ffffffffffffffffffffffffffffffffffffffff167f1d3eee4ca001cff39eec6ec7615aacf2f2bd61791273830728ba00ccbd6e133782604051610ac49190610b71565b60405180910390a25050565b60045481565b60008054906101000a900473ffffffffffffffffffffffffffffffffffffffff1681565b600080fd5b6000819050919050565b610b1281610aff565b8114610b1d57600080fd5b50565b600081359050610b2f81610b09565b92915050565b600060208284031215610b4b57610b4a610afa565b5b6000610b5984828501610b20565b91505092915050565b610b6b81610aff565b82525050565b6000602082019050610b866000830184610b62565b92915050565b600073ffffffffffffffffffffffffffffffffffffffff82169050919050565b6000610bb782610b8c565b9050919050565b610bc781610bac565b82525050565b6000602082019050610be26000830184610bbe565b92915050565b610bf181610bac565b8114610bfc57600080fd5b50565b600081359050610c0e81610be8565b92915050565b600060208284031215610c2a57610c29610afa565b5b6000610c3884828501610bff565b91505092915050565b6000606082019050610c566000830186610b62565b610c636020830185610b62565b610c706040830184610b62565b949350505050565b6000819050919050565b6000610c9d610c98610c9384610b8c565b610c78565b610b8c565b9050919050565b6000610caf82610c82565b9050919050565b6000610cc182610ca4565b9050919050565b610cd181610cb6565b82525050565b6000602082019050610cec6000830184610cc8565b92915050565b600082825260208201905092915050565b7f496e73756666696369656e74207374616b656420616d6f756e74000000000000600082015250565b6000610d39601a83610cf2565b9150610d4482610d03565b602082019050919050565b60006020820190508181036000830152610d6881610d2c565b9050919050565b7f4e487b7100000000000000000000000000000000000000000000000000000000600052601160045260246000fd5b6000610da982610aff565b9150610db483610aff565b9250828203905081811115610dcc57610dcb610d6f565b5b92915050565b6000604082019050610de76000830185610bbe565b610df46020830184610b62565b9392505050565b60008115159050919050565b610e1081610dfb565b8114610e1b57600080fd5b50565b600081519050610e2d81610e07565b92915050565b600060208284031215610e4957610e48610afa565b5b6000610e5784828501610e1e565b91505092915050565b7f546f6b656e207472616e73666572206661696c65640000000000000000000000600082015250565b6000610e96601583610cf2565b9150610ea182610e60565b602082019050919050565b60006020820190508181036000830152610ec581610e89565b9050919050565b7f416d6f756e7420746f6f206c6f77000000000000000000000000000000000000600082015250565b6000610f02600e83610cf2565b9150610f0d82610ecc565b602082019050919050565b60006020820190508181036000830152610f3181610ef5565b9050919050565b6000606082019050610f4d6000830186610bbe565b610f5a6020830185610bbe565b610f676040830184610b62565b949350505050565b6000610f7a82610aff565b9150610f8583610aff565b9250828201905080821115610f9d57610f9c610d6f565b5b92915050565b7f4e6f7420636f6e7472616374206f776e65720000000000000000000000000000600082015250565b6000610fd9601283610cf2565b9150610fe482610fa3565b602082019050919050565b6000602082019050818103600083015261100881610fcc565b9050919050565b7f4e6f207374616b656420746f6b656e7300000000000000000000000000000000600082015250565b6000611045601083610cf2565b91506110508261100f565b602082019050919050565b6000602082019050818103600083015261107481611038565b9050919050565b600061108682610aff565b915061109183610aff565b925082820261109f81610aff565b915082820484148315176110b6576110b5610d6f565b5b5092915050565b7f4e487b7100000000000000000000000000000000000000000000000000000000600052601260045260246000fd5b60006110f782610aff565b915061110283610aff565b925082611112576111116110bd565b5b828204905092915050565b7f4e6f2072657761726420617661696c61626c6500000000000000000000000000600082015250565b6000611153601383610cf2565b915061115e8261111d565b602082019050919050565b6000602082019050818103600083015261118281611146565b9050919050565b7f526577617264207472616e73666572206661696c656400000000000000000000600082015250565b60006111bf601683610cf2565b91506111ca82611189565b602082019050919050565b600060208201905081810360008301526111ee816111b2565b905091905056fea26469706673582212204dbdd3ed4042e914600be29eaaa40a24ab05780a13f20528e1ee027436b2a67c64736f6c634300081c0033",
  "linkReferences": {},
  "deployedLinkReferences": {}
}